:02000000002AD4
:10000800F000030EF100031383120B19F5230C18EB
:10001800F8238C18FC230B18FE23710E8300F00EB6
:04002800700E09004D
:100200008A010A140F3982073F3406345B344F34B5
:1002100066346D347D3407347F346F3477347C3406
:0802200039345E347934713485
:100400004E23A623AD23BA23C423D223D918E7242D
:1004100020083C3C0319ED24A11BA3033B30A11B86
:10042000A1005E18192AA108031D192AA30803199F
:100430000125051F212A61180A25051F212A621C92
:10044000112522083C3C0319F22424083C3C0319E2
:10045000A4012608173C031CA6012508183C031913
:10046000F5242308643C03191425A31BA3012108C8
:100470003C3C03191725A11BA1013B30A21BA20084
:100480003B30A41BA4001730A51BA5001730A61BEA
:10049000A60028080D3C0319F8241F30A71BA7004D
:1004A0000C30A81BA8005E1C5C2AA308031D5C2A54
:1004B000A10801300319A1002308643C0318622A33
:1004C0006330A3005E186E2A621C6E2A2608250679
:1004D000031D6E2A24082206031908256218722AB1
:1004E0000512732A05165E18772A8512782A851652
:1004F0002808013A03191A252808023A0319222567
:100500002808033A03191A252808043A03192A254A
:100510002808053A03191A252808063A03192A2536
:100520002808073A03191A252808083A03191A2532
:100530002808093A03192A2528080A3A03191A250E
:1005400028080B3A03192A2528080C3A03191A25FA
:100550005C0889005D18DB2ADD18022B5D19282B49
:10056000B12A05148510051185112008BC00220848
:10057000BE002508C000C501C601C701C801C901E8
:10058000CA015708BE02C80A0318C22A872458089D
:10059000BE02C70A0318C82A8D245708C002CA0A17
:1005A0000318CE2A93245808C002C90A0318D42A73
:1005B00099242324062A091505108514051185118F
:1005C0002708C1002808C200CB01CC01CD01CE0113
:1005D0005708C102CC0A0318E92A9F245808C1020F
:1005E000CB0A0318EF2AA5245708C202CE0A031823
:1005F000F52AAB245808C202CD0A0318FB2AB124FD
:100600003024062A0510851005158511D301D40163
:10061000D501D6012408C4002608C3005708C40227
:10062000D40A03180F2BCF245808C402D30A031886
:10063000152BD5245708C302D60A03181B2BDB241D
:100640005808C302D50A0318212BE1243D24062AA9
:100650000510851005118515CF01D001D101D201FA
:100660002108BD002308BF005708BD02D00A0318A7
:10067000352BB7245808BD02CF0A03183B2BBD24E5
:100680005708BF02D20A0318412BC3245808BF02DF
:10069000D10A0318472BC9244A24062A03178316B4
:1006A0008801890103138316FF30860085018701C5
:1006B000880189010313831285018701880186015E
:1006C00089010030A0001030A2000530A5000030E4
:1006D000A9000030AA000030AB000030AC000030B0
:1006E000AD000030AE000030C5000030C600003064
:1006F000C7000030C8000030C9000030CA000A300E
:10070000D7000130D8000030BB000030D9000030E5
:10071000DA000030DB00FF30DC000030DD000F309D
:10072000A7000630A800FE30DE000030DF000030F9
:10073000E0000030A1000130A3001130A40005301A
:10074000A6000030E1000030E20008000313831629
:100750000F140F178F160F12080003138316811240
:1007600081110111811001100313831206308100E1
:100770000B1108000313831290109011901610169D
:1007800010131014EE23080003138316F3309200A5
:100790000313831292141214121792161216921542
:1007A00012150800031383161614961416159615C1
:1007B0001616031383160C148C14031383120B17D1
:1007C0008B178B160B110C108C108B150B1008004F
:1007D00003138312063081000B11080003138312E8
:1007E0000B308F00DC308E000C10E82357240800FB
:1007F000EE23D90ADC0908008C100800061C0A2424
:10080000861C2124061D4225861D6525061E3225CF
:100810000B1008005D18192CDD181D2C5D19112C0A
:10082000152C5D10DD105D1108005D14DD105D11EB
:1008300008005D10DD145D1108005D10DD105D1510
:100840000800DE0908002B080021E4002C08002124
:10085000E5002D080021E6002E080021E300080035
:1008600031080021E40032080021E5002F080021B2
:10087000E60030080021E300080037080021E4000A
:1008800038080021E50039080021E6003A08002177
:10089000E300080033080021E40034080021E500EB
:1008A00035080021E60036080021E3000800880131
:1008B0003B18662CBB186D2C3B19742C5F2C6608FA
:1008C000870008143B14BB103B1108006508870023
:1008D00088143B10BB143B110800640887000815FE
:1008E0003B10BB103B1508006308870088153B10C0
:1008F000BB103B110800C6035708BC074608AA00F6
:100900000800C5035808BC074508A9000800C8032B
:100910005708BE074808AC000800C7035808BE07C0
:100920004708AB000800CA035708C0074A08AE00D2
:100930000800C9035808C0074908AD000800CC03E7
:100940005708C1074C08B0000800CB035808C1077E
:100950004B08AF000800CE035708C2074E08B2008C
:100960000800CD035808C2074D08B1000800D003A5
:100970005708BD075008B4000800CF035808BD074A
:100980004F08B3000800D2035708BF075208B6004B
:100990000800D1035808BF075108B5000800D40368
:1009A0005708C4075408B8000800D3035808C40700
:1009B0005308B7000800D6035708C3075608BA0003
:1009C0000800D5035808C3075508B9000800D90125
:1009D000A00A611C0800A1030800A001A20A051BCF
:1009E00011250800A201A50A0800A501A70A080010
:1009F0000130A80008003B30A40008001730A60012
:100A000008000130A3000030A100051761100800A4
:100A10000517080005130130A3000030A100611084
:100A200008000513621008006330A30008000030BE
:100A3000A100080027081F3C0318212D0130A70042
:100A4000A80A080027081C3C0318292D0130A7001C
:100A5000A80A080027081E3C0318312D0130A70002
:100A6000A80A08005E18402D352D5D183E2DDD18B2
:100A70003E2D5D193C2D3E2DE1090800E2090800DC
:100A8000E00908005E1C08006018562D472D5D180F
:100A9000502DDD18522D5D19542D4E2DA20A08003F
:100AA000A70A0800A40A0800A10A08005D185F2D23
:100AB000DD18612D5D19632D5D2DA50A0800A80ABA
:100AC0000800A60A0800A30A08005E1C08006018B7
:100AD000792D6A2D5D18732DDD18752D5D19772D13
:100AE000712DA2030800A7030800A4030800A103B6
:100AF00008005D18822DDD18842D5D19862D802D4E
:100B0000A5030800A8030800A6030800A303080023
:04400E00D420FF3F7C
:00000001FF
